:020000040800F2
:1000000048050020C500000849170008F114000841
:1000100000000000000000000000000000000000E0
:10002000000000000000000000000000931700081E
:10003000000000000000000091170008951700085C
:10004000D700000800000000D7000008D700000813
:10005000D7000008D7000008D7000008D700000824
:1000600000000000D7000008D7000008D7000008F3
:10007000D7000008D7000008D700000800000000E3
:10008000511800080000000000000000D700000820
:1000900000000000D7000008D7000008D7000008C3
:1000A00000000000D700000800000000D700000892
:1000B0000348854600F04EF8004800470D1E000832
:1000C000480500200448804704480047FEE7FEE753
:1000D000FEE7FEE7FEE7FEE7F5170008B1000008BF
:1000E00030B50B46014600202022012409E00D46D0
:1000F000D5409D4205D31D469540491B2546954058
:1001000040191546521E002DF1DC30BD03460B434D
:100110009B0703D009E008C9121F08C0042AFAD2BD
:1001200003E00B780370401C491C521EF9D2704743
:10013000D2B201E00270401C491EFBD2704700227F
:10014000F6E710B513460A4604461946FFF7F0FFD6
:10015000204610BD064C0125064E05E0E36807CC9D
:100160002B430C3C98471034B442F7D3FFF7A4FF5D
:100170009C1E0008BC1E0008F8B50025044640344B
:1001800000952278012A39D00122227003689E68E6
:10019000760767D4384F4E68BE424DD09E6A0F78BE
:1001A000BA4016439E620123826B1B079A421FD0FE
:1001B000012A1DD0022A1BD0032A19D0042A17D0E5
:1001C000052A15D0062A13D0072A11D002688B6899
:1001D00056697607760FB3420AD05369DB08DB0015
:1001E0005361006842690B7A5B075B0F1A434261F7
:1001F0000A68102A04D0112A02D038E00220F8BD83
:100200001E488368102A07D0012292051343836099
:100210000868102803D02AE00122D205F6E7194821
:1002200017490068FFF75CFF0A21484300E0401EC1
:1002300000900028FBD11AE0986A0E78B2409043F3
:1002400098620968102901D0112910D10B488268E1
:10025000102904D0012189058A43826007E0012129
:10026000C905F9E7416C20221143416401250020B2
:1002700020702846F8BD0000011000000027014052
:1002800040420F0004000020F8B500250446002875
:1002900003D0606C002802D008E00120F8BD0020E7
:1002A000A06440210855204600F0A8F8606C102298
:1002B000C006002870DB2068816849076CD4616C37
:1002C0001301994302231943616481688907890FE7
:1002D000012905D10168C9070FD1C16809040CD4EF
:1002E000C16818239943A3681943C1602068016954
:1002F000636889008908194301612068C1683D4B22
:100300001940C160A069E1698003C9030843216AFB
:100310004B031843636B012B02D001231B0300E046
:1003200000231843E36818432369022B09D00023F4
:100330001843236B666A5B0018430123012E02D029
:100340000AE00423F4E7002927D0616C202631431A
:100350006164A16C1943A164A16A0E46FF3EC23ECE
:1003600002D0E66A314308432168CE680643CE6076
:100370000126A16B3607B14213D0012911D0022901
:100380000FD003290DD004290BD0052909D0062947
:1003900007D0072905D010E028E00121090408430F
:1003A000DAE721684E69F608F6004E6121684E6969
:1003B000278F7F077F0F3E434E612168C9680E4E2D
:1003C0003140814207D10020A064606C8008800029
:1003D000401C606408E0606C022188431043606444
:1003E000A06C1843A06401252846F8BD606C10433A
:1003F0006064F8E71902FEFFE7FF3F8310B586B09F
:10040000044614216846FFF79AFE10492068884286
:1004100019D10F48826941150A43826182690A40F5
:100420000592426909020A43426140690840059009
:1004300001200090032001900020029009206946CD
:10044000C00600F015F806B010BD00000024014001
:100450000010024031B500F0B9F8009C0546601C60
:1004600000D0641C00F0B2F8401BA042FAD338BDA3
:10047000F8B500238DE001249C40A44622407DD0A5
:100480004C68022C01D0122C0CD1DC08A4002718D7
:100490003C6A5D07ED0E0F26AE40B4430E69AE40D8
:1004A00026433E6205685E000324B4400F79A543ED
:1004B000BF07BF0FB7402F4307604D68012D05D020
:1004C000022D03D0112D01D0122D0ED18568CF68D9
:1004D000A543B7402F43876047686546AF430D7912
:1004E000ED06ED0F9D403D434560C568A5438C6812
:1004F000B4402C43C4604C68E40049D5284CA5693D
:1005000001263543A561A4699D0834400094254C1B
:10051000AD002F19BC689D072E0F0F25B540AC43C9
:100520000925ED06A84201D100250FE01E4DA84285
:1005300001D101250AE01D4DA84201D1022505E0A7
:100540001B4DA84201D1032500E00525B5402543F8
:10055000BD60184C25684E689543F60300D51543D9
:10056000256065684E689543B60300D51543656000
:10057000A5684E689543F60202D500E008E01543F1
:10058000A560E5684E689543B60200D51543E56061
:100590005B1C0A681446DC4000D06CE7F8BD000024
:1005A000001002400000014000040048000800481C
:1005B000000C00480004014042694A404261704713
:1005C000002A01D08161704781627047014800684C
:1005D000704700000000002002480168491C0160CB
:1005E000704700000000002010B506480168102286
:1005F00011430160002000F007F800F017F8002018
:1006000010BD00000020024010B5044600F03AF989
:100610007D21C900FFF764FD00F030FB0022214678
:10062000501E00F021F8002010BD000008B5084859
:100630008169012211438161816911400091C26980
:1006400001040A43C261C0690840009008BD00006F
:1006500000100240C106C90E01208840014908600F
:100660007047000000E100E010B501F06FF810BD28
:10067000F8B505460068354CC00352D5E069002640
:10068000C00007D4E16920040143E161E169014050
:10069000012600912E480168C90510D40168821511
:1006A00011430160FFF792FF074604E0FFF78EFF5A
:1006B000C01B642824D826480068C005F6D5206AE7
:1006C00003273F02384020D06968394081421CD05E
:1006D000206A226AB843012109040A432262226A7D
:1006E0008A4322622062C0070FD0FFF76FFF00909D
:1006F00008E0FFF76BFF0099411A1648814201D9C3
:100700000320F8BD206A8007F3D5206A6968B843E2
:1007100008432062002E04D0E169012000078143D4
:10072000E1612878C00705D0206BA96880088000A7
:10073000084320632878800605D5206B1021884364
:10074000E968084320630020F8BD00000010024063
:100750000070004088130000F8B5054644480E4676
:100760000068C007C00FB0420AD24148016849087A
:100770004900314301600068C007C00FB0425CD13E
:1007800028783C4C800705D56068F0218843A9682B
:10079000084360602878C0073FD06868012813D0FC
:1007A0002168022813D08907002946DA6168890880
:1007B000890001436160FFF709FF69680746012965
:1007C0000DD0022917D024E021688903ECE78901C4
:1007D000EAE7FFF7FBFEC11B2748814217D8606894
:1007E0000007800F0128F4D117E0FFF7EFFEC11BCF
:1007F000214881420BD860680007800F0228F4D19D
:100800000BE0FFF7E3FEC11B1B48814201D9032027
:10081000F8BD60680007800FF3D115480168C9076B
:10082000C90FB1420BD90168490849003143016041
:100830000068C007C00FB04201D00120F8BD287881
:10084000400706D56068072109028843E968084324
:10085000606000F02DF86168084A0906090F515CD4
:10086000C840074908600020FFF7CEFE0020F8BD11
:10087000002002400010024088130000841E00087F
:1008800004000020014800687047000004000020B8
:100890000448054900684968044A4905490F515C04
:1008A000C84070470400002000100240941E000859
:1008B00010B512A30FCB88B06C460FC413A30FCB97
:1008C0000FC416494A680C20134603401448042BF1
:1008D0000FD0082B0DD193021B0F6C46E45CC96A44
:1008E00004AB0907090F595CD20304D5FFF7F8FBE5
:1008F000604308B010BD0B486043FAE702030405EB
:10090000060708090A0B0C0D0E0F10100102030454
:1009100005060708090A0B0C0D0E0F100010024007
:1009200000127A0000093D00FEB504460078D04D63
:10093000C00747D068680007800F012807D06868A3
:100940000007800F022809D16868C00306D528680F
:10095000800337D5606800287ED033E001206268CC
:100960000004012A11D08100002A01D0052A10D0EC
:100970002A6882432A6028688843286060680028C3
:1009800014D0FFF723FE06460CE0296801432960D6
:10099000F4E72A680A432A60F7E7FFF717FE801B8F
:1009A00064286FD828688003F7D50BE0FFF70EFEA8
:1009B000064604E0FFF70AFE801B6428F1D8286889
:1009C0008003F7D420780126800700283BDA686886
:1009D0000007800F07D068680007800F022809D140
:1009E0006868C00306D42868800715D5E068012828
:1009F00032D111E0E0680028286815D03043286023
:100A0000FFF7E4FD074604E0FFF7E0FDC01B022806
:100A1000C7D828688007F7D52868F8218843216956
:100A2000C900084328600EE0400840002860FFF736
:100A3000CDFD074604E0FFF7C9FDC01B0228B0D872
:100A400028688007F7D42078000724D5E0690028BB
:100A5000686A10D0304300E008E16862FFF7B6FD35
:100A6000074604E0FFF7B2FDC01B022899D8686A68
:100A70008007F7D50FE0400840006862FFF7A6FD49
:100A8000074605E09DE0FFF7A1FDC01B022888D8BE
:100A9000686A8007F7D4207804274007002860DAC6
:100AA00000200190E869C00008D4E969B806014354
:100AB000E961E96901400120009101906D480168F8
:100AC000C90511D40168821511430160FFF77EFD4D
:100AD000009005E0FFF77AFD0099401A642870D86D
:100AE00064480068C005F5D5A06801280AD0002830
:100AF00001D0052810D0286A400840002862286AE2
:100B0000B84301E0286A30432862A068002812D068
:100B1000FFF75CFD00900AE0286A38432862F1E79D
:100B2000FFF754FD0099411A5348814249D8286A79
:100B30008007F5D50DE0FFF749FD009006E0FFF7CF
:100B400045FD0099411A4C4881423AD8286A8007ED
:100B5000F5D40198002804D0E969012000078143F9
:100B6000E9612078C00635D5606901280CD0401DA8
:100B7000686B23D038436863686B40084000686343
:100B8000FFF724FD064622E0686B38436863686B14
:100B900030436863FFF71AFD064604E0FFF716FDD1
:100BA000801B02285BD8686B8007F7D5686BF8213B
:100BB0008843A169C900084368630BE0B8436863D0
:100BC000F4E74CE0FFF702FD801B022847D8686B72
:100BD0008007F7D4206A002846D069680907890F82
:100BE000022943D0012636060228286805D0B043E2
:100BF0002860FFF7EBFC044633E0B0432860FFF7C2
:100C0000E5FC074604E0FFF7E1FCC01B022826D8FC
:100C100028688001F7D4E86AE16A00090001084306
:100C2000E862616AA06A084369683D221204914340
:100C300008436860286830432860FFF7C7FC044613
:100C400004E0FFF7C3FC001B022808D828688001D5
:100C5000F7D509E0FFF7BAFC001B022801D90320F1
:100C6000FEBD28688001F5D40020FEBD0120FEBD38
:100C7000001002400070004088130000094910B5C0
:100C8000401E884201D9012010BD074C606103213C
:100C9000081F00F05BFD0020A061072020610020FC
:100CA00010BD0000FFFFFF0000E000E0704770474C
:100CB00070B5034620331A7F012A27D001241C7700
:100CC00002225A770326CA683602B2438E6800258C
:100CD0003243A602B2434E6800683243E602B24392
:100CE0000E6832432603B2430E6932436603B243B1
:100CF0004E6989693243A603B2430A43E603B2430D
:100D00000A4342645C771D77002070BD022070BDED
:100D100070B502462032137F012B1BD001231377BD
:100D200002245477046865687026B54365600468DA
:100D300065680E68354365600468A5688026B5431C
:100D4000A5600068846849680C438460537700207C
:100D5000107770BD022070BD70B5040005D0254627
:100D60002035687F002802D006E0012070BD0020F9
:100D70002877204600F00AF802206877211D2068B5
:100D800000F06EFD01206877002070BD10B586B0C0
:100D9000044614216846FFF7D2F91A4A21681A4816
:100DA000914208D18269C1140A4382618069084076
:100DB000059006B010BD154A9142FAD1C2690221D0
:100DC0000A43C261C2690A40059243690A04134397
:100DD000436140690191104005904020009000203F
:100DE000029003900120049009206946C006FFF795
:100DF0003FFB002201211020FFF736FC1020FFF7F7
:100E000029FCD6E7002C01400010024000040040FD
:100E1000F8B5054604462035287F012817D001275C
:100E20002F7702206877226890687726FF23B043E7
:100E30001B02984390600868502837D00EDC2028A9
:100E400057D006DC00284ED0102840D14EE00220BA
:100E5000F8BD302850D0402839D13CE060282DD052
:100E6000702817D001221203801A0ED090422ED182
:100E7000CB684A688968206800F039FD206881687D
:100E8000012292031143816021E020688168C90832
:100E9000C900F8E7CB684A688968206800F027FD38
:100EA00021688868B0433043886010E0CA684968A8
:100EB000206800F011FE5021206806E0CA684968E9
:100EC000206800F03DFE6021206800F01BFD6F7778
:100ED00000202877F8BDCA684968206800F0FCFD4A
:100EE00040212068F1E700212068EEE7102120680A
:100EF000EBE720212068E8E730212068E5E770472C
:100F0000F8B5064604462036307F0D4601283DD010
:100F10000120307702207077002A39D0042A46D089
:100F2000082A57D02B68297B20689E468C466B6820
:100F3000016A0122120391430162C169026A032717
:100F40003F02B9431B020B430F2109038B43614648
:100F50000907090C194305235B039A4373460A27C3
:100F60003B401B031343C16103622068C169032234
:100F700092029143C1612068C169AA6812021143BB
:100F8000C1610120707700203077F8BD0220F8BDE4
:100F9000EB6806CD083D206800F0B0FD206882694E
:100FA0000C218A43826120688169AA680FE0EB689E
:100FB00006CD083D206800F0D6FD20688269032137
:100FC00089028A43826120688169AA6812021143FA
:100FD0008161D6E788CD287921688446086AFF2296
:100FE000013290430862C8690A6A80088000384369
:100FF000F027B84367463F073F0E074305204002EE
:1010000082430A20034018021043CF61086220681F
:10101000C1690C229143C1612068C1692A68AEE7A9
:1010200070B5040005D025462035687F002802D021
:1010300006E0012070BD00202877204600F00AF865
:1010400002206877211D206800F00AFC01206877E3
:10105000002070BD704770B5044600680169002526
:10106000C9438907002915DBC168C943890711D421
:10107000E91E0161012020772068806980072046F1
:1010800002D0FFF73CFF04E000F0BEF8204600F07D
:101090003FF9257720680169C943490717D4C1681A
:1010A000C943490713D40421C943016102202077B1
:1010B000206880698005800F204602D0FFF71FFF5F
:1010C00004E000F0A1F8204600F022F9257720681E
:1010D0000169C943090716D4C168C943090712D475
:1010E0000821C9430161042020772068C069800776
:1010F000204602D0FFF703FF04E000F085F8204609
:1011000000F006F9257720680169C943C90617D49C
:10111000C168C943C90613D41021C943016108201D
:1011200020772068C0698005800F204602D0FFF735
:10113000E6FE04E000F068F8204600F0E9F82577C4
:1011400020680169C943C90708D1C168C943C907F3
:1011500004D1891E0161204600F0FEF82068016973
:10116000C943090609D4C168C943090605D48021C9
:10117000C94301612046FFF799FD20680169C94311
:10118000490609D4C168C943490605D44021C94369
:101190000161204600F0E1F820680169C943890631
:1011A00009D4C168C943890605D42021C943016116
:1011B0002046FFF77CFD70BD10B586B004461421B3
:1011C0006846FEF7BCFF0E492068884216D10D48DC
:1011D0004269012149040A4342614069084005907F
:1011E0000320400200900020022102900390019110
:1011F000049109206946C006FFF73AF906B010BD10
:10120000002C0140001002407047F8B50646044625
:101210002036307F0D4601280DD001203077022086
:1012200070770427002A08D0042A16D0082A2AD06A
:101230000C2A4DD137E00220F8BD206800F06AFB8F
:101240002068816908221143816120688169B9435E
:101250008161206881692A6912E0206800F096FBAC
:10126000206882690121C9020A438261206881697C
:101270000122920291438161206881692A691202E8
:101280001143816124E0206800F0BAFB2068C26944
:1012900008210A43C2612068C169B943C16120685D
:1012A000C1692A6912E0206800F0E6FB2068C16984
:1012B0000122D2021143C1612068C2690121890261
:1012C0008A43C2612068C1692A6912021143C1615F
:1012D0000120707700203077F8BD70B5040005D08C
:1012E00025462035687F002802D006E0012070BD29
:1012F00000202877204600F00AF802206877211D98
:10130000206800F0ADFA01206877002070BD7047BA
:101310007047000010B504460068012200F0DCFAB6
:101320000A482168814205D00948814202D0094813
:10133000814204D1486C0122D203104348642068E2
:101340000168012211430160002010BD002C014002
:1013500000440140004801407047704770B50400E8
:1013600005D025466035687A002802D006E00120C5
:1013700070BD00202872204600F026F824206872F4
:1013800020680168490849000160204600F074FCAB
:101390000128EDD0606A002802D0204600F0FDFB55
:1013A000206841680122D20291434160206881682F
:1013B0000822914381602068016801221143016085
:1013C000204600F04FFC70BD10B586B004461421D5
:1013D0006846FEF7B4FE1249206888421DD11148C4
:1013E0008269012189030A43826182690A40059268
:1013F0004269C9000A4342614069084005900C20D7
:101400000090022001900121032003900291049199
:1014100009206946C006FFF72BF806B010BD000092
:101420000038014000100240FFB506460446603611
:10143000707A83B00D46202858D1002D0CD0059825
:10144000002809D00120A1680003814207D120694A
:10145000002804D1E80702D0012007B0F0BD307A9F
:10146000012843D0012030720020E06621207072F4
:10147000FFF7ACF801902746403705983882059869
:10148000788218E0788A401E7882069800900022C0
:1014900080212046019B00F079FC002818D1012012
:1014A000A1680003814202D12069002812D021687E
:1014B000287808856D1C788A0028E3D1069800906A
:1014C000002240212046019B00F060FC002808D04B
:1014D0000320C2E728882168C005C00D0885AD1C1F
:1014E000E9E72020707200203072B6E70220B4E7EE
:1014F000FEE700003EB50024114912480094019413
:10150000029412C00460034601210422083344609F
:1015100016C344618461C461FF224462C2328462A2
:101520000262C1620838FEF7AFFE0120000301909D
:1015300000040290009469460248FEF71DFE3EBD7D
:101540000024014008000020F0B587B0142168464F
:10155000FEF7F5FD20484269012189050A434261F1
:1015600042690A400592426949110A43426142694F
:101570000A400592426949000A4342614069174E98
:1015800008400590002203213046FFF719F809278B
:10159000FF060022B2213846FFF712F8032000248C
:1015A0000125009002946946019503943046FEF7A8
:1015B0005FFFB2200090029469460195039438467B
:1015C000FEF756FF022000900194694602940448F9
:1015D000FEF74EFF07B0F0BD0010024000140048B7
:1015E0000004004810B594B000240E940F94109499
:1015F000119412941C2168461394FEF7A0FD1C213F
:1016000007A8FEF79CFD2249224812C004608460AE
:10161000C4602149046141600838FFF79DFB012047
:1016200000030E900EA91B48FFF7F2FB1948FFF7C5
:1016300054FE129412A917481394FFF769FB702007
:10164000009016480190022002900394049405949F
:101650000422694606940F48FFF7D7FD1048019011
:10166000082269460B48FFF7D0FD0120079440038C
:1016700008940C9009940A940B9407A90D940548BA
:10168000FFF716FB0348FFF797FD14B010BD0000ED
:10169000002C0140540000203F1F00009F0F00005D
:1016A000CF07000010B58AB0002404940594069476
:1016B00007940894174809940094019402941449DB
:1016C00003940160072184604160046163218461A7
:1016D000C160FFF741FB01200003049004A90D48FD
:1016E000FFF796FB0B48FFF79BFC089408A90948F5
:1016F0000994FFF70DFB0120019000940294002251
:10170000694603940348FFF7FBFB0AB010BD0000D5
:10171000000400409400002010B50A480849016008
:10172000E1214902416000218160C1600161816164
:10173000C1610C22016242614162FFF70FFE10BDE0
:1017400000380140D4000020704700008307FF22CA
:10175000DB0E9A408907090E994000280BDA000732
:10176000000F0838830808489B001818C369934382
:101770000B43C3617047830804489B001B1818681B
:10178000904308431860704700ED00E000E400E07B
:101790007047704710B5FEF71FFF10BD30B595B00C
:1017A00030216846FEF7CBFC002401250F9412205F
:1017B000059500900D940E9410201094129413949B
:1017C0000C94039504900690119408946846FFF7D2
:1017D000ABF807200C900D940E9400210F940CA8E8
:1017E000FEF7BAFF10A810951294FEF741FF15B04E
:1017F00030BD0000134801680122114301604168B7
:10180000114A114041600168104A114001600168AD
:10181000012292049143016041683F2212049143E6
:101820004160C16A09090901C162016BFF221432DA
:1018300091430163416B4908490041630021816084
:1018400070470000001002400CB8FF08FFFFF6FED2
:1018500010B50248FFF7FFFB10BD00009400002008
:1018600070B50268174B184E984201D0B04203D1B0
:101870007024A2434C682243144C154D984208D062
:10188000B04206D0134EB04203D0A04201D0A842CD
:1018900004D103263602B243CE6832438026B243D7
:1018A0004E69324302608A68C2620A688262984264
:1018B00003D0A04201D0A84201D1096901630121EE
:1018C000416170BD002C0140000400400044014013
:1018D000004801400020004010B50123046A8B40FD
:1018E0009C430462036A8A401343036210BD30B50F
:1018F0008468FF252D021B021343AC430B43234393
:10190000836030BD826870239A430A4307210A43EB
:1019100082607047F0B5026A520852000262056A9E
:10192000436882697024A24392080C6892001443B1
:10193000022295438A68134E2A43114DA84204D0CF
:10194000B04202D0104FB84206D10827BA43CF6840
:101950001743042297433A46A84204D0B04202D02B
:10196000094DA84206D103252D02AB434D691D4305
:101970008B692B4343608461496841630262F0BD17
:10198000002C0140004401400048014070B5026A4B
:1019900010239A430262046A4368826973252D0208
:1019A000AA430D682D021543202294438A68120130
:1019B0002243104CA04208D11446CA688026B44382
:1019C000120122434024A24305E00B4CA04202D066
:1019D0000A4CA04208D10324A402A3434C69A400EA
:1019E0001C438B699B002343436085614968816385
:1019F000026270BD002C01400044014000480140DB
:101A000070B5026AFF2301339A430262046A436895
:101A1000C2697025AA4392080D68920015430122FD
:101A2000520294438A6812022243104CA04207D10A
:101A3000C414A243CC68240222430615B24305E035
:101A40000B4CA04202D00B4CA04208D1032424032B
:101A5000A3434C6924011C438B691B01234343604E
:101A6000C5614968C163026270BD0000002C01407D
:101A7000004401400048014030B5026A01231B03C5
:101A80009A430262056A4268C36973242402A3432D
:101A90000C6824021C4301235B039D438B681B03DA
:101AA0002B430A4DA84205D0094DA84202D0094D4A
:101AB000A84205D10125AD03AA434D69AD012A43D2
:101AC0004260C46149680164036230BD002C01407A
:101AD000004401400048014030B5036A046A6408CC
:101AE000640004628469F025AC43120122430A2495
:101AF000A3430B438261036230BD000070B5046AEA
:101B00006408640004628469056A0B4EB04202D026
:101B10000A4EB04202D1A408A40000E001221443FE
:101B2000F02294431A07120E0A2322439D431940C0
:101B300029438261016270BD002C01400004004015
:101B400030B5036A1024A34303628469036A0F2536
:101B50002D031203AC432243A024A34309011943DC
:101B60008261016230BD70B5046A1025AC43046225
:101B70008569046A03263602B54312022A430F25FB
:101B80002D031B071B0CAA431343A02209019443F6
:101B9000114021438361016270BD10B5818CC9077A
:101BA00007D001684A6801235B049A43836A1A4399
:101BB0004A60818C890707D501684A6801231B04A4
:101BC0009A43C36A1A434A60818C490707D5016862
:101BD0004A6801239B049A43036B1A434A60818C31
:101BE000090707D501684A680123DB039A43436B61
:101BF0001A434A60818CC90607D50268916801239F
:101C00001B039943836B19439160818C890607D527
:101C100001688A6801235B039A43C36B1A438A6095
:101C2000818C490612D503685A6801210905046CA4
:101C30008A4322435A60026C8A4207D10268516883
:101C400003235B059943436C19435160818C09065A
:101C500007D501684A680123DB04806C9A4302437C
:101C60004A6010BD0021C16620226030427282723B
:101C70000172084670470000F8B504462369A2685F
:101C8000E6691A43636910213343002026681A432A
:101C900033680546394F3B401343336023685A6825
:101CA00003263603B243E66832435A60236AA269C8
:101CB00026681A43B3680B273F02BB431343B36044
:101CC0002F4A126B9207920F06D0012A08D0022ADF
:101CD00008D0032A07D101E0002104E0022102E03C
:101CE000042100E008210122E369D203934224D1B8
:101CF00000290CD002290DD0042913D0082917D0AF
:101D00000125010909010007400F084332E0FEF7F1
:101D1000BFFD09E061681B4A48088018FEF7E0F93A
:101D200080B2EEE7FEF7C4FD616840004A08F4E7C0
:101D30006168012248081204EFE7002908D002294F
:101D400009D004290BD008290ED001252846F8BD5A
:101D5000FEF79EFD05E061680B4A480806E0FEF7C5
:101D6000A7FD61684A0801E0616848088018FEF72D
:101D7000B7F980B22168C860E8E70000F369FFFFA7
:101D8000001002400024F40000127A00FFB581B078
:101D900017460E4604460A9D1DE0681C1BD0002D08
:101DA00005D0FEF713FC0499401AA84213D9206805
:101DB0000168FF22A13291430160206881684908CF
:101DC00049008160202060346072A072002020727F
:101DD000032005B0F0BD2068C1693046884304D0B7
:101DE0000020B842D9D00020F3E70120F9E702E053
:101DF00008C8121F08C1002AFAD170477047002096
:101E000001E001C1121F002AFBD1704786B0FEF726
:101E1000EBFBFFF7C3FCFFF797FBFFF76BFBFFF74D
:101E20007BFCFFF7DFFBFFF73DFC14220E49684601
:101E3000FEF76CF904210D48FFF76CFA08210B48F6
:101E4000FFF768FA0924E40610212046FEF7B4FBE8
:101E500006486423102269468030FFF7E5FA6420C3
:101E6000FEF7F8FAF0E70000701E000854000020AA
:101E7000547279207561727420546573747E0D0AF2
:101E80000000000000000000000000000102030448
:101E9000060708090000000001020304BC1E000838
:101EA0000000002008000000EE1D0008C41E00080D
:101EB0000800002040050000FE1D00080000000092
:041EC00000127A0092
:04000005080000B13E
:00000001FF
